{
  "contractName": "Project",
  "abi": [
    {
      "constant": true,
      "inputs": [
        {
          "name": "",
          "type": "address"
        }
      ],
      "name": "approvers",
      "outputs": [
        {
          "name": "",
          "type": "bool"
        }
      ],
      "payable": false,
      "stateMutability": "view",
      "type": "function"
    },
    {
      "constant": true,
      "inputs": [],
      "name": "manager",
      "outputs": [
        {
          "name": "",
          "type": "address"
        }
      ],
      "payable": false,
      "stateMutability": "view",
      "type": "function"
    },
    {
      "constant": true,
      "inputs": [
        {
          "name": "",
          "type": "uint256"
        }
      ],
      "name": "requests",
      "outputs": [
        {
          "name": "description",
          "type": "string"
        },
        {
          "name": "value",
          "type": "uint256"
        },
        {
          "name": "recipient",
          "type": "address"
        },
        {
          "name": "complete",
          "type": "bool"
        },
        {
          "name": "approvalCount",
          "type": "uint256"
        }
      ],
      "payable": false,
      "stateMutability": "view",
      "type": "function"
    },
    {
      "constant": true,
      "inputs": [],
      "name": "approversCount",
      "outputs": [
        {
          "name": "",
          "type": "uint256"
        }
      ],
      "payable": false,
      "stateMutability": "view",
      "type": "function"
    },
    {
      "constant": true,
      "inputs": [],
      "name": "minimumContribution",
      "outputs": [
        {
          "name": "",
          "type": "uint256"
        }
      ],
      "payable": false,
      "stateMutability": "view",
      "type": "function"
    },
    {
      "constant": true,
      "inputs": [],
      "name": "_detail",
      "outputs": [
        {
          "name": "title",
          "type": "string"
        },
        {
          "name": "authorName",
          "type": "string"
        },
        {
          "name": "email",
          "type": "string"
        },
        {
          "name": "photoSrc",
          "type": "string"
        },
        {
          "name": "desc",
          "type": "string"
        },
        {
          "name": "to",
          "type": "string"
        },
        {
          "name": "minimum",
          "type": "uint256"
        }
      ],
      "payable": false,
      "stateMutability": "view",
      "type": "function"
    },
    {
      "inputs": [
        {
          "name": "title",
          "type": "string"
        },
        {
          "name": "authorName",
          "type": "string"
        },
        {
          "name": "email",
          "type": "string"
        },
        {
          "name": "photoSrc",
          "type": "string"
        },
        {
          "name": "desc",
          "type": "string"
        },
        {
          "name": "to",
          "type": "string"
        },
        {
          "name": "minimum",
          "type": "uint256"
        },
        {
          "name": "creator",
          "type": "address"
        }
      ],
      "payable": false,
      "stateMutability": "nonpayable",
      "type": "constructor"
    },
    {
      "constant": false,
      "inputs": [],
      "name": "contribute",
      "outputs": [],
      "payable": true,
      "stateMutability": "payable",
      "type": "function"
    },
    {
      "constant": false,
      "inputs": [
        {
          "name": "description",
          "type": "string"
        },
        {
          "name": "value",
          "type": "uint256"
        },
        {
          "name": "recipient",
          "type": "address"
        }
      ],
      "name": "createRequest",
      "outputs": [],
      "payable": false,
      "stateMutability": "nonpayable",
      "type": "function"
    },
    {
      "constant": false,
      "inputs": [
        {
          "name": "index",
          "type": "uint256"
        }
      ],
      "name": "approveRequest",
      "outputs": [],
      "payable": false,
      "stateMutability": "nonpayable",
      "type": "function"
    },
    {
      "constant": false,
      "inputs": [
        {
          "name": "index",
          "type": "uint256"
        }
      ],
      "name": "finalizeRequest",
      "outputs": [],
      "payable": false,
      "stateMutability": "nonpayable",
      "type": "function"
    },
    {
      "constant": true,
      "inputs": [],
      "name": "getSummary",
      "outputs": [
        {
          "name": "",
          "type": "uint256"
        },
        {
          "name": "",
          "type": "uint256"
        },
        {
          "name": "",
          "type": "uint256"
        },
        {
          "name": "",
          "type": "uint256"
        },
        {
          "name": "",
          "type": "address"
        }
      ],
      "payable": false,
      "stateMutability": "view",
      "type": "function"
    },
    {
      "constant": true,
      "inputs": [],
      "name": "getRequestsCount",
      "outputs": [
        {
          "name": "",
          "type": "uint256"
        }
      ],
      "payable": false,
      "stateMutability": "view",
      "type": "function"
    }
  ],
  "bytecode": "0x60806040523480156200001157600080fd5b506040516200150238038062001502833981018060405281019080805182019291906020018051820192919060200180518201929190602001805182019291906020018051820192919060200180518201929190602001805190602001909291908051906020019092919050505062000089620001e0565b60e0604051908101604052808a815260200189815260200188815260200187815260200186815260200185815260200184815250905081600160006101000a81548173ffffffffffffffffffffffffffffffffffffffff021916908373ffffffffffffffffffffffffffffffffffffffff160217905550826002819055508060056000820151816000019080519060200190620001289291906200021e565b506020820151816001019080519060200190620001479291906200021e565b506040820151816002019080519060200190620001669291906200021e565b506060820151816003019080519060200190620001859291906200021e565b506080820151816004019080519060200190620001a49291906200021e565b5060a0820151816005019080519060200190620001c39291906200021e565b5060c08201518160060155905050505050505050505050620002cd565b60e060405190810160405280606081526020016060815260200160608152602001606081526020016060815260200160608152602001600081525090565b828054600181600116156101000203166002900490600052602060002090601f016020900481019282601f106200026157805160ff191683800117855562000292565b8280016001018555821562000292579182015b828111156200029157825182559160200191906001019062000274565b5b509050620002a19190620002a5565b5090565b620002ca91905b80821115620002c6576000816000905550600101620002ac565b5090565b90565b61122580620002dd6000396000f3006080604052600436106100ba576000357c0100000000000000000000000000000000000000000000000000000000900463ffffffff16806303441006146100bf5780630a144391146100ec5780633410452a146101475780634051ddac14610172578063481c6a75146101e557806381d12c581461023c57806382fde0931461032e5780638a9cfd5514610359578063937e09b1146103ec578063a2a6e0c314610417578063d7bb99ba146106ca578063d7d1bbdb146106d4575b600080fd5b3480156100cb57600080fd5b506100ea60048036038101908080359060200190929190505050610701565b005b3480156100f857600080fd5b5061012d600480360381019080803573ffffffffffffffffffffffffffffffffffffffff16906020019092919050505061084c565b604051808215151515815260200191505060405180910390f35b34801561015357600080fd5b5061015c61086c565b6040518082815260200191505060405180910390f35b34801561017e57600080fd5b50610187610878565b604051808681526020018581526020018481526020018381526020018273ffffffffffffffffffffffffffffffffffffffff1673ffffffffffffffffffffffffffffffffffffffff1681526020019550505050505060405180910390f35b3480156101f157600080fd5b506101fa6108d8565b604051808273ffffffffffffffffffffffffffffffffffffffff1673ffffffffffffffffffffffffffffffffffffffff16815260200191505060405180910390f35b34801561024857600080fd5b50610267600480360381019080803590602001909291905050506108fe565b60405180806020018681526020018573ffffffffffffffffffffffffffffffffffffffff1673ffffffffffffffffffffffffffffffffffffffff16815260200184151515158152602001838152602001828103825287818151815260200191508051906020019080838360005b838110156102ef5780820151818401526020810190506102d4565b50505050905090810190601f16801561031c5780820380516001836020036101000a031916815260200191505b50965050505050505060405180910390f35b34801561033a57600080fd5b50610343610a08565b6040518082815260200191505060405180910390f35b34801561036557600080fd5b506103ea600480360381019080803590602001908201803590602001908080601f016020809104026020016040519081016040528093929190818152602001838380828437820191505050505050919291929080359060200190929190803573ffffffffffffffffffffffffffffffffffffffff169060200190929190505050610a0e565b005b3480156103f857600080fd5b50610401610b85565b6040518082815260200191505060405180910390f35b34801561042357600080fd5b5061042c610b8b565b6040518080602001806020018060200180602001806020018060200188815260200187810387528e818151815260200191508051906020019080838360005b8381101561048657808201518184015260208101905061046b565b50505050905090810190601f1680156104b35780820380516001836020036101000a031916815260200191505b5087810386528d818151815260200191508051906020019080838360005b838110156104ec5780820151818401526020810190506104d1565b50505050905090810190601f1680156105195780820380516001836020036101000a031916815260200191505b5087810385528c818151815260200191508051906020019080838360005b83811015610552578082015181840152602081019050610537565b50505050905090810190601f16801561057f5780820380516001836020036101000a031916815260200191505b5087810384528b818151815260200191508051906020019080838360005b838110156105b857808201518184015260208101905061059d565b50505050905090810190601f1680156105e55780820380516001836020036101000a031916815260200191505b5087810383528a818151815260200191508051906020019080838360005b8381101561061e578082015181840152602081019050610603565b50505050905090810190601f16801561064b5780820380516001836020036101000a031916815260200191505b50878103825289818151815260200191508051906020019080838360005b83811015610684578082015181840152602081019050610669565b50505050905090810190601f1680156106b15780820380516001836020036101000a031916815260200191505b509d505050505050505050505050505060405180910390f35b6106d2610f4b565b005b3480156106e057600080fd5b506106ff60048036038101908080359060200190929190505050610fc7565b005b6000600160009054906101000a900473ffffffffffffffffffffffffffffffffffffffff1673ffffffffffffffffffffffffffffffffffffffff163373ffffffffffffffffffffffffffffffffffffffff1614151561075f57600080fd5b60008281548110151561076e57fe5b90600052602060002090600502019050600260045481151561078c57fe5b04816003015411151561079e57600080fd5b8060020160149054906101000a900460ff161515156107bc57600080fd5b8060020160009054906101000a900473ffffffffffffffffffffffffffffffffffffffff1673ffffffffffffffffffffffffffffffffffffffff166108fc82600101549081150290604051600060405180830381858888f1935050505015801561082a573d6000803e3d6000fd5b5060018160020160146101000a81548160ff0219169083151502179055505050565b60036020528060005260406000206000915054906101000a900460ff1681565b60008080549050905090565b60008060008060006002543073ffffffffffffffffffffffffffffffffffffffff1631600080549050600454600160009054906101000a900473ffffffffffffffffffffffffffffffffffffffff16945094509450945094509091929394565b600160009054906101000a900473ffffffffffffffffffffffffffffffffffffffff1681565b60008181548110151561090d57fe5b9060005260206000209060050201600091509050806000018054600181600116156101000203166002900480601f0160208091040260200160405190810160405280929190818152602001828054600181600116156101000203166002900480156109b95780601f1061098e576101008083540402835291602001916109b9565b820191906000526020600020905b81548152906001019060200180831161099c57829003601f168201915b5050505050908060010154908060020160009054906101000a900473ffffffffffffffffffffffffffffffffffffffff16908060020160149054906101000a900460ff16908060030154905085565b60045481565b610a1661110c565b600160009054906101000a900473ffffffffffffffffffffffffffffffffffffffff1673ffffffffffffffffffffffffffffffffffffffff163373ffffffffffffffffffffffffffffffffffffffff16141515610a7257600080fd5b60a0604051908101604052808581526020018481526020018373ffffffffffffffffffffffffffffffffffffffff16815260200160001515815260200160008152509050600081908060018154018082558091505090600182039060005260206000209060050201600090919290919091506000820151816000019080519060200190610b00929190611154565b506020820151816001015560408201518160020160006101000a81548173ffffffffffffffffffffffffffffffffffffffff021916908373ffffffffffffffffffffffffffffffffffffffff16021790555060608201518160020160146101000a81548160ff0219169083151502179055506080820151816003015550505050505050565b60025481565b6005806000018054600181600116156101000203166002900480601f016020809104026020016040519081016040528092919081815260200182805460018160011615610100020316600290048015610c255780601f10610bfa57610100808354040283529160200191610c25565b820191906000526020600020905b815481529060010190602001808311610c0857829003601f168201915b505050505090806001018054600181600116156101000203166002900480601f016020809104026020016040519081016040528092919081815260200182805460018160011615610100020316600290048015610cc35780601f10610c9857610100808354040283529160200191610cc3565b820191906000526020600020905b815481529060010190602001808311610ca657829003601f168201915b505050505090806002018054600181600116156101000203166002900480601f016020809104026020016040519081016040528092919081815260200182805460018160011615610100020316600290048015610d615780601f10610d3657610100808354040283529160200191610d61565b820191906000526020600020905b815481529060010190602001808311610d4457829003601f168201915b505050505090806003018054600181600116156101000203166002900480601f016020809104026020016040519081016040528092919081815260200182805460018160011615610100020316600290048015610dff5780601f10610dd457610100808354040283529160200191610dff565b820191906000526020600020905b815481529060010190602001808311610de257829003601f168201915b505050505090806004018054600181600116156101000203166002900480601f016020809104026020016040519081016040528092919081815260200182805460018160011615610100020316600290048015610e9d5780601f10610e7257610100808354040283529160200191610e9d565b820191906000526020600020905b815481529060010190602001808311610e8057829003601f168201915b505050505090806005018054600181600116156101000203166002900480601f016020809104026020016040519081016040528092919081815260200182805460018160011615610100020316600290048015610f3b5780601f10610f1057610100808354040283529160200191610f3b565b820191906000526020600020905b815481529060010190602001808311610f1e57829003601f168201915b5050505050908060060154905087565b60025434111515610f5b57600080fd5b6001600360003373ffffffffffffffffffffffffffffffffffffffff1673ffffffffffffffffffffffffffffffffffffffff16815260200190815260200160002060006101000a81548160ff021916908315150217905550600460008154809291906001019190505550565b60008082815481101515610fd757fe5b90600052602060002090600502019050600360003373ffffffffffffffffffffffffffffffffffffffff1673ffffffffffffffffffffffffffffffffffffffff16815260200190815260200160002060009054906101000a900460ff16151561103f57600080fd5b8060040160003373ffffffffffffffffffffffffffffffffffffffff1673ffffffffffffffffffffffffffffffffffffffff16815260200190815260200160002060009054906101000a900460ff1615151561109a57600080fd5b60018160040160003373ffffffffffffffffffffffffffffffffffffffff1673ffffffffffffffffffffffffffffffffffffffff16815260200190815260200160002060006101000a81548160ff02191690831515021790555080600301600081548092919060010191905055505050565b60a0604051908101604052806060815260200160008152602001600073ffffffffffffffffffffffffffffffffffffffff168152602001600015158152602001600081525090565b828054600181600116156101000203166002900490600052602060002090601f016020900481019282601f1061119557805160ff19168380011785556111c3565b828001600101855582156111c3579182015b828111156111c25782518255916020019190600101906111a7565b5b5090506111d091906111d4565b5090565b6111f691905b808211156111f25760008160009055506001016111da565b5090565b905600a165627a7a723058200715e224529b998053bc5a6351bf20bc7dd8637bfdd28fa954a722faab53d52b0029",
  "source": "pragma solidity ^0.4.17;\r\n\r\n\r\ncontract ProjectFactory {\r\n    address[] public deployedCampaigns;\r\n\r\n    // function createCampaign(uint minimum) public {\r\n    //     address newCampaign = new Project(minimum, msg.sender);\r\n    //     deployedCampaigns.push(newCampaign);\r\n    // }\r\n\r\n    function createCampaign(string title, string authorName, string email, string photoSrc, string desc, string to, uint minimum) public {\r\n        address newCampaign = new Project(\r\n            title,\r\n            authorName,\r\n            email,\r\n            photoSrc,\r\n            desc,\r\n            to,\r\n            minimum,\r\n            msg.sender\r\n        );\r\n        deployedCampaigns.push(newCampaign);\r\n    }\r\n\r\n    function getDeployedCampaigns() public view returns (address[]) {\r\n        return deployedCampaigns;\r\n    }\r\n}\r\n\r\ncontract Project {\r\n\r\n    Request[] public requests;\r\n    address public manager;\r\n    uint public minimumContribution;\r\n    mapping(address => bool) public approvers;\r\n    uint public approversCount;\r\n\r\n    struct productDetail {\r\n        string title;\r\n        string authorName;\r\n        string email;\r\n        string photoSrc;\r\n        string desc;\r\n        string to;\r\n        uint minimum;\r\n    }\r\n\r\n    productDetail public _detail;\r\n\r\n    // constructor(uint minimum, address creator) public {\r\n    //     manager = creator;\r\n    //     minimumContribution = minimum;\r\n    // }\r\n\r\n    constructor(\r\n        string title,\r\n        string authorName,\r\n        string email,\r\n        string photoSrc,\r\n        string desc,\r\n        string to,\r\n        uint minimum,\r\n        address creator) public {\r\n\r\n        productDetail memory detail = productDetail(\r\n            title,\r\n            authorName,\r\n            email,\r\n            photoSrc,\r\n            desc,\r\n            to,\r\n            minimum\r\n        );\r\n        manager = creator;\r\n        minimumContribution = minimum;\r\n        _detail = detail;\r\n    }\r\n\r\n    struct Request {\r\n        string description;\r\n        uint value;\r\n        address recipient;\r\n        bool complete;\r\n        uint approvalCount;\r\n        mapping(address => bool) approvals;\r\n    }\r\n\r\n\r\n\r\n    modifier restricted() {\r\n        require(msg.sender == manager);\r\n        _;\r\n    }\r\n\r\n\r\n    function contribute() public payable {\r\n        require(msg.value > minimumContribution);\r\n\r\n        approvers[msg.sender] = true;\r\n        approversCount++;\r\n    }\r\n\r\n    function createRequest(string description, uint value, address recipient) public restricted {\r\n        Request memory newRequest = Request({\r\n            description: description,\r\n            value: value,\r\n            recipient: recipient,\r\n            complete: false,\r\n            approvalCount: 0\r\n            });\r\n\r\n        requests.push(newRequest);\r\n    }\r\n\r\n    function approveRequest(uint index) public {\r\n        Request storage request = requests[index];\r\n\r\n        require(approvers[msg.sender]);\r\n        require(!request.approvals[msg.sender]);\r\n\r\n        request.approvals[msg.sender] = true;\r\n        request.approvalCount++;\r\n    }\r\n\r\n    function finalizeRequest(uint index) public restricted {\r\n        Request storage request = requests[index];\r\n\r\n        require(request.approvalCount > (approversCount / 2));\r\n        require(!request.complete);\r\n\r\n        request.recipient.transfer(request.value);\r\n        request.complete = true;\r\n    }\r\n\r\n    function getSummary() public view returns (\r\n        uint, uint, uint, uint, address\r\n    ) {\r\n        return (\r\n        minimumContribution,\r\n        this.balance,\r\n        requests.length,\r\n        approversCount,\r\n        manager\r\n        );\r\n    }\r\n\r\n    function getRequestsCount() public view returns (uint) {\r\n        return requests.length;\r\n    }\r\n\r\n    // function getDetail() public view returns (title,\r\n    //         string,\r\n    //         string,\r\n    //         string,\r\n    //         string,\r\n    //         uint,\r\n    //         uint,\r\n    //         uint) {\r\n\r\n    //     return (\r\n    //         productDetail.title,\r\n    //         productDetail.authorName,\r\n    //         productDetail.email,\r\n    //         productDetail.photoSrc,\r\n    //         productDetail.desc,\r\n    //         productDetail.from,\r\n    //         productDetail.to,\r\n    //         productDetail.minimum\r\n    //         );\r\n    // }\r\n}\r\n",
  "sourcePath": "D:\\workspace_bc2\\crowfund-react\\contracts\\Crowfunding.sol",
  "compiler": {
    "name": "solc",
    "version": "0.4.23+commit.124ca40d.Emscripten.clang"
  },
  "schemaVersion": "2.0.0",
  "updatedAt": "2018-05-13T09:49:04.577Z"
}